:100000000C942A000C9447000C9447000C94470071
:100010000C9447000C9447000C9447000C94470044
:100020000C9447000C9447000C9447000C94470034
:100030000C9447000C9447000C9447000C94470024
:100040000C9447000C9447000C9447000C94470014
:100050000C94470011241FBECFE5D8E0DEBFCDBF12
:1000600010E0A0E6B0E0E4E4FCE002C005900D92F0
:10007000AE36B107D9F710E0AEE6B0E001C01D9290
:10008000AE36B107E1F70E948B040C9420060C9465
:10009000000082E660E041E00E94FD018FE99FE000
:1000A0000197F1F700C0000082E660E040E00E94A6
:1000B000FD018FE99FE00197F1F700C0000008956E
:1000C000CF93C82F682F62956F7083E60E94220439
:1000D00082E461E040E00E94FD010E9449008FEC53
:1000E00097E00197F1F700C0000083E66C2F0E94B3
:1000F000220482E461E040E00E94FD010E94490088
:100100008FEC97E00197F1F700C00000CF910895C0
:100110008FEF91EEA4E081509040A040E1F700C045
:10012000000083E660E041E00E946C0183E661E04C
:1001300041E00E946C0183E662E041E00E946C01B4
:1001400083E663E041E00E946C0183E664E041E005
:100150000E946C0182E660E041E00E946C0182E650
:1001600061E041E00E946C0182E662E041E00E94B1
:100170006C0182E662E040E00E94FD0182E00E94A4
:100180006000AFE1BEE41197F1F700C0000088E223
:100190000E9460008FEC97E00197F1F700C000002B
:1001A0008CE00E946000AFECB7E01197F1F700C05F
:1001B000000081E00E9460008FE19EE40197F1F76A
:1001C00000C0000086E00E946000AFECB7E011972D
:1001D000F1F700C000000895CF93C82F682F6295F3
:1001E0006F7083E60E94220482E461E041E00E9495
:1001F000FD010E9449008FEC97E00197F1F700C0E4
:10020000000083E66C2F0E94220482E461E041E05A
:100210000E94FD010E9449008FEC97E00197F1F7E1
:1002200000C00000CF910895CF93DF93EC01888147
:10023000882331F021960E94EC0089918823D9F718
:10024000DF91CF91089581E00E9460008FE19EE4EC
:100250000197F1F700C00000089582E00E9460005D
:100260008FE19EE40197F1F700C00000089581300E
:1002700059F4862F81580E9460008FE19EE4019717
:10028000F1F700C000000895823059F4862F8154A0
:100290000E9460008FE19EE40197F1F700C000002A
:1002A00008950E942D018FE19EE40197F1F700C0AF
:1002B000000008953E9A3F9A3C9A379A329A319AB2
:1002C0000895369A3699FECF84B190E045B1342F27
:1002D00020E0822B932B0895843409F471C0853477
:1002E00048F4823499F1833408F04DC0813409F028
:1002F00083C00FC0823651F1833620F4813609F075
:100300007BC007C0833609F43EC0843609F074C050
:1003100057C0442371F42AB381E090E0AC0102C0DD
:10032000440F551F6A95E2F7BA01609562236ABBD4
:1003300008952AB381E090E0AC0102C0440F551F3C
:100340006A95E2F7BA01622B6ABB0895442371F4FF
:1003500027B381E090E0AC0102C0440F551F6A95BD
:10036000E2F7BA016095622367BB089527B381E085
:1003700090E0AC0102C0440F551F6A95E2F7BA0144
:10038000622B67BB0895442371F424B381E090E0AD
:10039000AC0102C0440F551F6A95E2F7BA0160959F
:1003A000622364BB089524B381E090E0AC0102C0F5
:1003B000440F551F6A95E2F7BA01622B64BB08959A
:1003C000442371F421B381E090E0AC0102C0440FFA
:1003D000551F6A95E2F7BA016095622361BB0895E3
:1003E00021B381E090E0AC0102C0440F551F6A9533
:1003F000E2F7BA01622B61BB0895843409F471C03D
:10040000853448F4823499F1833408F04DC0813446
:1004100009F083C00FC0823651F1833620F4813653
:1004200009F07BC007C0833609F43EC0843609F06A
:1004300074C057C0413069F42BB381E090E0AC0147
:1004400002C0440F551F6A95E2F7BA01622B6BBBDD
:1004500008952BB381E090E0AC0102C0440F551F1A
:100460006A95E2F7BA01609562236BBB089541304B
:1004700069F428B381E090E0AC0102C0440F551F3D
:100480006A95E2F7BA01622B68BB089528B381E050
:1004900090E0AC0102C0440F551F6A95E2F7BA0123
:1004A0006095622368BB0895413069F425B381E00B
:1004B00090E0AC0102C0440F551F6A95E2F7BA0103
:1004C000622B65BB089525B381E090E0AC0102C0CA
:1004D000440F551F6A95E2F7BA016095622365BB28
:1004E0000895413069F422B381E090E0AC0102C08C
:1004F000440F551F6A95E2F7BA01622B62BB08955B
:1005000022B381E090E0AC0102C0440F551F6A9510
:10051000E2F7BA016095622362BB0895833439F132
:10052000843428F4813449F0823469F513C082366A
:1005300089F08336E1F0813631F52BB381E090E02C
:10054000AC0102C0440F551F6A95E2F7BA01622759
:100550006BBB089528B381E090E0AC0102C0440F6A
:10056000551F6A95E2F7BA01622768BB089525B363
:1005700081E090E0AC0102C0440F551F6A95E2F79C
:10058000BA01622765BB0895843409F451C08534EB
:1005900040F4823439F18334C0F5813409F05AC013
:1005A0000EC08236F9F0833620F4813609F052C04D
:1005B00006C0833651F1843609F04CC039C029B3E6
:1005C00081E090E0062E02C0880F991F0A94E2F79E
:1005D00030E08223932302C0959587956A95E2F7D0
:1005E000982F38C026B381E090E0062E02C0880F15
:1005F000991F0A94E2F730E08223932302C0959575
:1006000087956A95E2F7982F25C023B381E090E0A3
:10061000062E02C0880F991F0A94E2F730E0822369
:10062000932302C0959587956A95E2F7982F12C09B
:1006300020B381E090E0062E02C0880F991F0A9433
:10064000E2F730E08223932302C0959587956A955F
:10065000E2F7982F892F08958434D9F0853438F43F
:10066000823499F0833498F48134A1F40CC082363A
:1006700061F0833618F4813669F405C0833639F0A9
:10068000843641F406C06ABB089567BB089564BB15
:10069000089561BB08958434D9F0853438F48234E8
:1006A00099F0833498F48134A1F40CC0823661F05F
:1006B000833618F4813669F405C0833639F0843600
:1006C00041F406C06BBB089568BB089565BB0895EF
:1006D00062BB0895843409F1853438F48234A9F07A
:1006E0008334B8F48134E1F40CC0823671F083367F
:1006F00018F48136A9F405C0833659F0843681F4A4
:100700000CC08BB380958BBB089588B3809588BB54
:10071000089585B3809585BB089582B3809582BB8B
:100720000895843409F471C0853448F4823499F111
:10073000833408F04DC0813409F083C00FC0823685
:1007400051F1833620F4813609F07BC007C083362F
:1007500009F43EC0843609F074C057C0413069F4D2
:100760002BB381E090E0AC0102C0440F551F6A95A5
:10077000E2F7BA01622B6BBB08952BB381E090E0E6
:10078000AC0102C0440F551F6A95E2F7BA016095AB
:1007900062236BBB0895413069F428B381E090E097
:1007A000AC0102C0440F551F6A95E2F7BA01622BF3
:1007B00068BB089528B381E090E0AC0102C0440F0B
:1007C000551F6A95E2F7BA016095622368BB0895E8
:1007D000413069F425B381E090E0AC0102C0440FE0
:1007E000551F6A95E2F7BA01622B65BB089525B3E0
:1007F00081E090E0AC0102C0440F551F6A95E2F71A
:10080000BA016095622365BB0895413069F422B353
:1008100081E090E0AC0102C0440F551F6A95E2F7F9
:10082000BA01622B62BB089522B381E090E0AC0173
:1008300002C0440F551F6A95E2F7BA016095622322
:1008400062BB08956F70843451F1853438F482347A
:10085000C1F08334E8F4813441F50CC0823689F06C
:10086000833618F4813609F505C0833689F084365D
:10087000E1F415C08BB3807F8BBB8BB3682B6BBB54
:10088000089588B3807F88BB88B3682B68BB0895C0
:1008900085B3807F85BB85B3682B65BB089582B324
:1008A000807F82BB82B3682B62BB08956295607FB4
:1008B000843451F1853438F48234C1F08334E8F45F
:1008C000813441F50CC0823689F0833618F48136C4
:1008D00009F505C0833689F08436E1F415C08BB381
:1008E0008F708BBB8BB3682B6BBB089588B38F70F5
:1008F00088BB88B3682B68BB089585B38F7085BBB0
:1009000085B3682B65BB089582B38F7082BB82B3B9
:10091000682B62BB08950E9488000E945A0180E6FD
:1009200090E00E9414010AE010E00F2EF8EEEF2E86
:10093000F3E0FF2EF02D0E9461019C01B901882790
:1009400077FD8095982F0E941D0520E030E040E261
:1009500050E40E9481050E94EF0433E0693E730772
:10096000F8F0CB01885E9340B8010E940C06EB01C1
:1009700080E20E94EC00CE01B8010E940C06C82F54
:10098000862F805D0E94EC008C2F805D0E94EC0021
:100990008FED0E94EC0081E06DE00E943701CBCF2B
:1009A000C701861B970BB8010E940C06EB018DE274
:1009B0000E94EC00CE01B8010E940C06C82F862FC1
:1009C000805D0E94EC008C2F805D0E94EC008FED1A
:1009D0000E94EC0081E06DE00E943701ACCF70D046
:1009E00088F09F5790F0B92F9927B751A0F0D1F018
:1009F000660F771F881F991F1AF0BA95C9F712C0A2
:100A0000B13081F077D0B1E0089574C0672F782FAE
:100A10008827B85F39F0B93FCCF38695779567950D
:100A2000B395D9F73EF490958095709561957F4F79
:100A30008F4F9F4F0895E89409C097FB3EF490951F
:100A40008095709561957F4F8F4F9F4F9923A9F0A7
:100A5000F92F96E9BB279395F69587957795679536
:100A6000B795F111F8CFFAF4BB0F11F460FF1BC07A
:100A70006F5F7F4F8F4F9F4F16C0882311F096E90D
:100A800011C0772321F09EE8872F762F05C06623BB
:100A900071F096E8862F70E060E02AF09A95660F74
:100AA000771F881FDAF7880F9695879597F908952D
:100AB00057FD9058440F551F59F05F3F71F047950F
:100AC000880F97FB991F61F09F3F79F087950895F4
:100AD000121613061406551FF2CF4695F1DF08C013
:100AE000161617061806991FF1CF86957105610530
:100AF00008940895E894BB2766277727CB0197F9D8
:100B000008950BD078C069D028F06ED018F09523E6
:100B100009F05AC05FC01124EECFCADFA0F3959F41
:100B2000D1F3950F50E0551F629FF001729FBB27D4
:100B3000F00DB11D639FAA27F00DB11DAA1F649F80
:100B40006627B00DA11D661F829F2227B00DA11D33
:100B5000621F739FB00DA11D621F839FA00D611DB9
:100B6000221F749F3327A00D611D231F849F600DDA
:100B7000211D822F762F6A2F11249F5750408AF013
:100B8000E1F088234AF0EE0FFF1FBB1F661F771F9F
:100B9000881F91505040A9F79E3F510570F014C036
:100BA000AACF5F3FECF3983EDCF386957795679587
:100BB000B795F795E7959F5FC1F7FE2B880F911DBD
:100BC0009695879597F9089597F99F6780E870E063
:100BD00060E008959FEF80EC089500240A941616B3
:100BE000170618060906089500240A94121613061B
:100BF000140605060895092E0394000C11F48823A9
:100C000052F0BB0F40F4BF2B11F460FF04C06F5FC4
:100C10007F4F8F4F9F4F0895AA1BBB1B51E107C009
:100C2000AA1FBB1FA617B70710F0A61BB70B881F7C
:100C3000991F5A95A9F780959095BC01CD0108950B
:040C4000F894FFCF56
:0E0C440054656D70726174757265203D00001C
:00000001FF
